:0313F10001670091
:03000B00021326B7
:10132600C0E085658C85668AE5677002B2A4D0E068
:011336003284
:1012930075890175660B7565FE85658C85668AD2D1
:0B12A3008CD2A9D2AFD2A47567012243
:0413E900E4F567229E
:0413ED0075670122FD
:100F46008F6FEFFD7C007E017FF4120624C374FFD1
:100F56009FFF74FF9EFEE49400FDE49400FCE4FB16
:100F66007A01F9F8121037AF038F66E56FFD7C0042
:100F76007E017FF4120624C374FF9FFF74FF9EFE5A
:100F8600E49400FDE49400FCE4FB7A01F9F8121005
:040F9600378F65220A
:1011FA007FC6EFD394007480948040127E02EED3AF
:0E120A0094007480948040031E80F31F80E4E3
:0112180022B3
:0F138C007F04EFD394007480948040031F80F39C
:01139B00222F
:101219007F01EFD394007480948040127E1CEED33A
:0E12290094007480948040031E80F31F80E4C4
:011237002294
:0F139C007F12EFD394007480948040031F80F37E
:0113AB00221F
:101238007F04EFD394007480948040127E71EED3C3
:0E12480094007480948040031E80F31F80E4A5
:011256002275
:101124007F93EFD394007480948040217E7FEED32C
:1011340094007480948040127D11EDD394007480E7
:0E114400948040031D80F31E80E41F80D500C0
:01115200227A
:1011D600E4FEC2B71211FAD2B7E4FE30B7130EEE30
:1011E600D394057480948040037F012212138C806F
:0311F600EA7F008D
:0111F90022D3
:0810F0001211D61212387FCC58
:0210F800AD0742
:1010FA00E4F56DF56EFBFAC2B7056EE56E70020592
:10110A006DED1392B7121219D2B7EDC313FD0BBBD3
:09111A0000010AEB64084A70DED2
:0111230022A9
:1010B600E4FEFDFCFA7B08C2B70DBD00010CD2B7F9
:1010C6000DBD00010C0DBD00010CA2B7E433F9C43F
:1010D6003333335480FFEEC3134FFE12139CEB1BC6
:0910E60070011AEB4A70D0AF064C
:0110EF0022DE
:0B13CC001210F07F441210F8021124F0
:080003001210F07FBE0210F89C
:10118100E4FFFEF570FBFAF9F81213CC120003121A
:1011910010B68F701210B6EFFEE570FFFDAC06E4DD
:0D11A100120119E4FBFA7980783D02000E7E
:0E1257005401FB24FF92B4D2B6121265C2B647
:0F126500E4FFEFC394037480948050030F80F371
:011274002257
:0A0F9A002430FF121280AD077F8C97
:020FA400A9079B
:100FA600E4FEFBC2B6121265C2B5121265D2B512C4
:100FB6001265EEC3940874809480500BE9121257A0
:100FC600E9C313F90E80EBE4FEEEC3940874809433
:100FD60080500BED121257EDC313FD0E80EBC2B617
:080FE600121265C2B50212658A
:020E8F00AE07AC
:100E9100E4FDFBF9C2B6121265C2B5121265D2B5F4
:100EA100121265EDC3940874809480500BEE1212F7
:100EB10057EEC313FE0D80EBE4FBFDEDC394087404
:100EC1008094805016A2B4E433F9A805088002C3C7
:100ED10033D8FC420312125E0D80E0C2B6121265D5
:090EE100C2B5121265C2B4AF03E0
:010EEA0022E5
:0312DA00120E8F62
:1012DD00EF54F0C4540F75F00AA4FEEF540F2EFF17
:0112ED0022DE
:0B127500AC07E4FD7F8E120FA4AF0455
:10128000EF75F00A84C454F0FEEF75F00A84E5F0BF
:031290004EFF22EC
:100FEE007F8D1212DAEF24D0F558E43407F5577FCF
:100FFE00891212DA8F597F87120E8F1212DD8F5AD5
:10100E007F85120E8F1212DD8F5B7F83120E8F1271
:10101E0012DD8F5C7F81120E8F1212DD8F5D7F8B42
:09102E00120E8F1212DD8F5E22FA
:100EEB00E4FD7F8E120FA4E516120F9AAF171212A4
:100EFB0080AD077F88120FA4AF18121280AD077F49
:100F0B0086120FA4AF19121280AD077F84120FA4A3
:100F1B00AF1A121280AD077F82120FA4AF1B1212F1
:100F2B0080AD077F80120FA4AF1C121280AD077F1C
:0B0F3B008A120FA47D807F8E020FA49D
:1012AE008F82E4FD7F8E120FA4AF82EF120F9A7D14
:0612BE00807F8E020FA4E8
:10133700121275AD077F88120FA47D807F8E020F72
:01134700A401
:10134800121275AD077F86120FA47D807F8E020F63
:01135800A4F0
:10135900121275AD077F84120FA47D807F8E020F54
:01136900A4DF
:10136A00121275AD077F82120FA47D807F8E020F45
:01137A00A4CE
:10137B00121275AD077F80120FA47D807F8E020F36
:01138B00A4BD
:101153007F05EFD394007480948040217E04EED306
:1011630094007480948040127DF8EDD394007480D1
:0D117300948040031D80F31E80E41F80D592
:01118000224C
:100DB200E4F51DF51EF51F75900FAF90EF640F60FF
:100DC20063121153AF90EF24F9601A24FC601124CE
:100DD200FE6008147012751D01800D751D028008D9
:100DE200751D038003751D047590F0AF90EF64F0DC
:100DF2006032AF90EF2490601B24C0601224E06048
:100E02000924F07012751E01800D751E028008758E
:100E12001E038003751E04E51D1425E025E0251E32
:060E2200F51FFF227F0016
:010E280022A7
:1012C400759850758780758920758DF3758BF3D269
:0612D4008ED2ACD2AF2265
:0813D7008F993099FDC29922A3
:100CB20025352E3266004C636453686F77446F7536
:100CC200626C653A2025660D0A00253464253032AF
:100CD20064253032642D253032642530326425306B
:100CE20032642D25640D0A002534642530326425D2
:100CF2003032642D2530326425303264253032643E
:100D02002D2564004C636453686F7754696D653AAE
:100D12002025730D0A002564000000000000000079
:100D220000000000000000000000000000000000C1
:040D320000000000BD
:101302007580FFC2A6D2A5D2A7AF80C2A7EF20E701
:01131200F6E4
:0113130022B7
:1013AC00AE07121302C2A6C2A58E80D2A7C2A72274
:1013BC00AE07121302D2A6C2A58E80D2A7C2A72254
:10131400ED7004AC078004EF2440FCEC4480FF0231
:0213240013AC08
:1011AE008B6A8A6B896C121314AB6AAA6BA96C12C8
:1011BE0005CC6013056CE56C7002056B14F9120515
:0811CE00CCFF1213BC80E222E9
:1012EE007F381213AC7F0C1213AC7F061213AC7F37
:0412FE00010213AC2A
:040E29008F088D0998
:100E2D00780E7C007D007BFF7A0D791B7E007F079D
:100E3D001205A67E007F077D007B007A00790E12D9
:100E4D0006BD7525FF75260C7527B2850D2B850CF6
:100E5D002A850B29850A287B007A00790E12081342
:100E6D007BFF7A0C79B8850D28850C27850B268597
:100E7D000A251208197B007A00790EAD09AF080218
:020E8D0011AEA4
:100D360078467C007D007BFF7A0D79227E007F114C
:100D46001205A67BFF7A0C79CC853E25853F268544
:100D5600402785412885422985432A85442B854598
:100D66002C1208197525FF75260C7527EA853E286D
:100D7600853F2985402A85412B85422C85432D8533
:100D8600442E85452F7B007A0079461208137B0096
:100D96007A007946E4FDFF1211AE7525007526002E
:0C0DA6007527467BFF7A0D7906020819BC
:06107B008F5F8D608B61A8
:1010810078627C007D007BFF7A0D79337E007F03DF
:101091001205A67525FF75260D7527188561287B14
:1010A100007A0079621208137B007A007962AD60E0
:0510B100AF5F0211AE6B
:0513DF007F0C0213ACBD
:0513E4007F0F0213ACB5
:03000000020C26C9
:0C0C2600787FE4F6D8FD758170020C6D3B
:10000E00EC4D6011E8497017ED33EC3304600DE4EC
:10001E00FCFFFEFD22E933E8330470F8020187127B
:10002E00015258046009E4CC24815006285009027C
:10003E00019128400302018EC0E0EB4A7044B98062
:10004E0006D0E0FB02017DEF4E701CBD8008EBFF79
:10005E00EAFEE9FD80EBE98DF0A4FEE5F00200F783
:10006E00E9CDF9EAFEEBFFEF89F0A4FCE5F0CE89CD
:10007E00F0A42EFFE435F0CD89F0A42DFEE435F08A
:10008E008067EF4E7005BD80D780C3EF8BF0A4ACB8
:10009E00F0EE8BF0A42CFCE435F0F8EF8AF0A42CF3
:1000AE00E5F038FCE433CB8DF0A42CFCE5F03BF806
:1000BE00EE8AF0A42CFCE5F038F8E433CF89F0A4F6
:1000CE002CFCE5F038CF3400CE89F0A42FFFE5F0FC
:1000DE003EFEE433C98DF0A42EFEE5F039CD8AF054
:1000EE00A42FFFE5F03EFEE43DFD33D0E0FB5007CC
:1000FE000BBB000F020191EC2CFCEF33FFEE33FE35
:06010E00ED33FD02016962
:1001140075F020800E75F010800575F0087D007E66
:10012400007F003392D530D503120679EC334010AA
:10013400EF33FFEE33FEED33FDEC33FCD5F0ED226F
:0E014400E5F0247EA2D513CC92E7CDCEFF22AB
:1007B700E5392425F8E6053922782230070278251D
:1007C700E475F0011206870205CC2000EB7F2ED2DC
:1007D700008018EF540F2490D43440D4FF30040B1A
:1007E700EF24BFB41A0050032461FFE53A600215F5
:1007F7003A053DE53D7002053C30070D7822E4756A
:10080700F001120687EF0206120213D77403D2070C
:100817008003E4C207F5398B228A238924E4F53A59
:10082700F53CF53DE53A60077F201207F280F57544
:100837003BFFC201C200C202C203C205C206C20810
:100847001207C0FF700D3007057F00120803AF3D88
:10085700AE3C22B4255FC2D5C2041207C0FF24D024
:10086700B40A00501A75F00A783A30D50508B6FF71
:100877000106C6A426F620D5047002D20380D92427
:10088700CFB41A00EF5004C2E5D204020AF0D20135
:1008970080C6D20080C0D20280BCD2D580BAD20531
:1008A70080B47F201207F22002077401B53A004096
:1008B700F11207B7FF1207F202082BD208D20680FF
:1008C700951207B7FB1207B7FA1207B7F94A4B7029
:1008D7000679E77A0B7BFF20022EE53A602A7E0035
:1008E7008E827583001205E560060EEE653B70F09B
:1008F700C2D5EBC0E0EAC0E0E9C0E0EE120B50D091
:10090700E0F9D0E0FAD0E0FB1205CCFF60AAEBC01B
:10091700E0EAC0E0E9C0E01207F2D0E02401F9D034
:10092700E03400FAD0E0FBE53B0460DCD53BD9803E
:1009370087D20280A2120B3360F7E53B70010412E5
:10094700019CA93B600DE53B600914F53B120BDAEE
:10095700EF60F3EA30E702F404C3995077EAF4252D
:100967003B0430E701E404F53B800D120B3360C113
:10097700EA053B253B12019CEA7838F630E701E4AB
:10098700253B04D53B0420050114120B50E4C0E0BD
:10099700120BDA7838E6601320E70714F61207DA45
:1009A700802204F6D0E014C0E07F001207DAE53BAE
:1009B70060071207D1153B800B3005031207D1D012
:1009C700E002082BD0E00480C5120B3360A0E53BA2
:1009D7000412019C7838EAF6E53B20050260010421
:0509E7002404120B5076
:1009EC0074FF04C0E0120BDA1207DAE53B200502B3
:1009FC0060031207D1D0E0B53BE87F451207E478DD
:100A0C0038E67F2B30E7047F2DF404C0E01207F2A8
:100A1C00D0E075F00A84C0F01207DBD0E01207DBDF
:100A2C0002082B791080027908C206C2088008D20D
:100A3C00D5790A8004790AC2D5E53B047002F53BEE
:100A4C00E4FAFDFEFF1207B7FC7B08200113120726
:100A5C00B7FD7B1030000A1207B7FE1207B7FF7BF9
:100A6C0020EC3382D592D55013C3E43000069FFF9F
:100A7C00E49EFEE42001039DFDE49CFCE4CBF8C263
:100A8C0001EC700CCFCECDCCE824F8F870F38017C5
:100A9C00C3EF33FFEE33FEED33FDEC33FCEB33FBF6
:100AAC00994002FB0FD8E9EB300105F8D0E0C448BF
:100ABC00B201C0E00AEC4D4E4F78207B0070C2EAC8
:100ACC00B53B0040BCC0E0120B52D0F0D0E020018E
:100ADC0004C4C0E0C4B201C0F01207DBD0F0D5F002
:100AEC00EB02082B12069708C8530A2F5808994C8A
:100AFC000895420A334F0A3B440A3B4908AE430A65
:100B0C00415509724609D045093C470C0750089DD0
:100B1C002D08A12E08C42B08A52308C2200BF02AEF
:100B2C00085D48000008BCE53BB4FF03753B0612AA
:100B3C0007B7FC1207B7FD1207B7FE1207B7FF780D
:100B4C00310201CB790AA2D5200314300509B91062
:100B5C00020404B9080104A2D520060250010420A5
:100B6C0002689202B53A005034C0E07F203003197D
:100B7C007F30A20272067205500F120BA9C202C27C
:100B8C0006C205C2087F30800F300503E9C0E012B1
:100B9C0007F2300503D0E0F9D0E0B53ACC300517B8
:100BAC007F30B9100C1207F27F583004077F788021
:100BBC0003B908031207F23002057F2D0207F27FFA
:100BCC00202008F87F2B2006F322920280CF7F0092
:100BDC00B4070050052431F8E6FF22286E756C6CC2
:100BEC002900D2011207B73001F8C201783A30D58A
:100BFC000108F602085D2D504349581207B724032B
:100C0C00B405004001E4900C02931207E3743A120D
:0A0C1C0007E3D203753A04020A2F21
:10015200E9D2E7C933E833F892D5EDD2E7CD33ECF3
:0701620033FC5002B2D5226C
:10016900EC30E7100FBF000C0EBE00080DBD0004F7
:100179000BEB6014A2D5EB13FCED92E7FD2274FFA3
:10018900FCFDFEFF22E480F8A2D574FF13FC7D80FC
:03019900E480EF10
:10019C00F920E72824F950037907E4F42402FB182A
:1001AC00DBFDE624FB5014E9600DE4F618E604F6DA
:0F01BC00B40A08E4F6D9F57401F60A22C2D52276
:1001CB00ED33EC3392D5FA602AB4FF33EDC2E77B03
:1001DB00FF60067A0179F0E4227A0179F920D504DF
:1001EB007A0179F4224E614E002B494E46002D497F
:1001FB004E4600E47A08F608DAFC7B00740722E826
:10020B00C0E0ECC0E0EDC0E0EEC0E0EFC0E0EA75AE
:10021B00F010A4CAABF075F04DA42BFBE435F0FC49
:10022B00EA2410FAEB34C5FBEC34D9FCEDC2E7FF42
:10023B0075F056A4F42411C5F0F434C58FF0A42A3C
:10024B00E5F03BE43CF620E714120496D0E0FFD037
:10025B00E0FED0E0FDD0E0FC1203C98014F40412E0
:10026B000496D0E0FFD0E0FED0E0FDD0E0FC120021
:10027B000ED0E0F8E6FAEDD2E7CD33EC332482FB77
:10028B00E4C3CF33CFCE33CECD33CD33DBF37B07CC
:10029B0075F00A846004F6081B0AE5F0F6088FF087
:1002AB00740AA4FFACF08EF0740AA42CFEACF050D0
:1002BB00010C8DF0740AA42CFDE435F0F608DBDE9E
:0302CB0074072293
:1002CE00020187E86480F8E933E83360110460F0D6
:1002DE00ED33EC337009E8FCE9FDEAFEEBFF220496
:1002EE0060DED3EB9FEA9EE99DE8C2E78CF0C2F791
:1002FE0095F0400CE8CCF8E9CDF9EACEFAEBCFFB5D
:10030E0012015285D0F05804700320D5B3E8047062
:10031E00075002B2D502019192D5EC0460F7E4CCFD
:10032E00C0E0C398F8603B94186008400DD0E0FB25
:10033E00020169E4FBFAC9FC8028E830E406E4C94E
:10034E00FBE4CAFCE830E305E4C9CACBFCE8540779
:10035E006010F8C3E913F9EA13FAEB13FBEC13FC84
:10036E00D8F130F52FC3E49CFCEF9BFFEE9AFEED27
:10037E0099FDD0E0FBEF4E4D4C701222DB030201D3
:10038E008EEC2CFCEF33FFEE33FEED33FDED30E75C
:10039E00EB020169EF2BFFEE3AFEED39FDD0E0FBEB
:1003AE0050130BBB0003020191ED13FDEE13FEEF94
:0803BE0013FFEC13FC020169BE
:1003C600020191EC5D046005E8590470030201879F
:1003D600120152580460F6EC4860F2EC7004FDFE1F
:1003E600FF22C860DB2481C85009C398600250060A
:1003F60002018E9850CAF582E9294B4A7005AB82F4
:1004060002017D75F0007C1A7880C3EF9BEE9AEDB1
:1004160099400DC3EF9BFFEE9AFEED99FDE842F081
:10042600DC23ACF0D0E0FFD0E0FED0E0FDAB8220D4
:10043600E7101BEB60BAEC2CFCEF33FFEE33FEED5E
:1004460033FD020169E803F830E705C0F075F000F6
:10045600EF2FFFEE33FEED33FD40B830E7C280AA42
:100466003F8000004120000042C80000447A00009E
:10047600461C400047C35000497424004B18968020
:100486004CBEBC205A0E1BCA6753C21C749DC5AE17
:10049600FB60065407601C23231204C4EB54386027
:1004A600091204B01204BF12000EECF8EDF9EEFAD0
:1004B600EFCB22EB1204BF80F1543803241C9004C6
:1004C60066FE93FC0EEE93FD0EEE930ECE93FF2288
:100C3200020000E493A3F8E493A34003F68001F2D8
:100C420008DFF48029E493A3F85407240CC8C333C3
:100C5200C4540F4420C8834004F456800146F6DF92
:100C6200E4800B01020408102040809013F1E47E1E
:100C7200019360BCA3FF543F30E509541FFEE49387
:100C8200A360010ECF54C025E060A840B8E493A34E
:100C9200FAE493A3F8E493A3C8C582C8CAC583CA79
:100CA200F0A3C8C582C8CAC583CADFE9DEE780BE31
:0113F40000F8
:1004D600E709F608DFFA8046E709F208DFFA803E08
:1004E60088828C83E709F0A3DFFA8032E309F608F5
:1004F600DFFA8078E309F208DFFA807088828C835D
:10050600E309F0A3DFFA806489828A83E0A3F60810
:10051600DFFA805889828A83E0A3F208DFFA804CEA
:1005260080D280FA80C680D4806980F280338010C1
:1005360080A680EA809A80A880DA80E280CA80332A
:1005460089828A83ECFAE493A3C8C582C8CCC583A2
:10055600CCF0A3C8C582C8CCC583CCDFE9DEE78072
:100566000D89828A83E493A3F608DFF9ECFAA9F0F1
:10057600EDFB2289828A83ECFAE0A3C8C582C8CC47
:10058600C583CCF0A3C8C582C8CCC583CCDFEADE60
:10059600E880DB89828A83E493A3F208DFF980CCC2
:1005A60088F0EF60010E4E60C388F0ED2402B404BB
:1005B6000050B9F582EB2402B4040050AF23234562
:0605C6008223900526735C
:1005CC00BB010689828A83E0225002E722BBFE022D
:0905DC00E32289828A83E4932260
:1005E500BB010CE58229F582E5833AF583E02250CB
:1005F50006E92582F8E622BBFE06E92582F8E22215
:0D060500E58229F582E5833AF583E493222E
:10061200BB010689828A83F0225002F722BBFE01C7
:02062200F322C1
:10062400BC000BBE0029EF8DF084FFADF022E4CCBA
:10063400F875F008EF2FFFEE33FEEC33FCEE9DEC83
:10064400984005FCEE9DFE0FD5F0E9E4CEFD22EDC9
:10065400F8F5F0EE8420D21CFEADF075F008EF2F13
:10066400FFED33FD4007985006D5F0F222C398FD04
:050674000FD5F0EA22A1
:10103700C2D5E830E70FB2D5E4C39BFBE49AFAE4E4
:1010470099F9E498F8EC30E717B2D512106D12074A
:1010570025E4C39BFBE49AFAE499F9E498F8800342
:1010670012072530D50DE4C39FFFE49EFEE49DFDE6
:04107700E49CFC22D7
:0E067900C3E49FFFE49EFEE49DFDE49CFC2292
:10068700FAE6FB0808E6F925F0F618E6CA3AF62274
:10069700D083D082F8E4937012740193700DA3A3F2
:1006A70093F8740193F5828883E473740293686006
:0606B700EFA3A3A380DF06
:1006BD00EF4E6012EF60010EEDBB010B89828A8354
:1006CD00F0A3DFFCDEFA2289F05007F709DFFCA961
:0C06DD00F022BBFEFCF309DFFCA9F022B8
:1006E90075F008758200EF2FFFEE33FECD33CDCCC8
:1006F90033CCC58233C5829BED9AEC99E58298404B
:100709000CF582EE9BFEED9AFDEC99FC0FD5F0D627
:10071900E4CEFBE4CDFAE4CCF9A88222B800C1B951
:100729000059BA002DEC8BF084CFCECDFCE5F0CB8F
:10073900F97818EF2FFFEE33FEED33FDEC33FCEBC8
:1007490033FB10D703994004EB99FB0FD8E5E4F983
:10075900FA227818EF2FFFEE33FEED33FDEC33FC70
:10076900C933C910D7059BE99A4007EC9BFCE99A64
:10077900F90FD8E0E4C9FAE4CCFB2275F010EF2FA9
:10078900FFEE33FEED33FDCC33CCC833C810D707A9
:100799009BEC9AE899400AED9BFDEC9AFCE899F8E4
:0E07A9000FD5F0DAE4CDFBE4CCFAE4C8F92277
:00000001FF
